:02000000722D5F
:10000800FF00030E83018316B1000A08B2008A01BB
:100018008B1C142801308312D5000030D6008B10B9
:100028000B1D1C2883120B110130C2000030C300C5
:100038000B1C26288312061E25280130AF0000302D
:10004800B0000B10831632088A00310E8300FF0EB1
:040058007F0E09000E
:06005C0000000000080096
:0E006200213083120313FD00FD0B352808002A
:100070000F3083120313FC004730FD00FD0B3E28B8
:0A008000FC0B3E2800000000080001
:10008A0083120313F801F9011030FC00710DF80D09
:10009A00F90D7408F8027508031C750FF9020318A4
:1000AA005D287408F80775080318750FF907031017
:0A00BA00F00DF10DFC0B4B280800BF
:1000C40083160313D41B6928831288136B288312A5
:1000D40088178316541B71288312081373288312FC
:1000E40008178316D41A7928831288127B2883125E
:1000F40088168316541A81288312081283288312BF
:1001040008166D18872808148828081088142E20CB
:1001140088108316D4199128831288139328831284
:100124008817831654199928831208139B2883125D
:1001340008178316D418A12883128812A3288312BF
:10014400881683165418A92883120812AB28831220
:1001540008166D18AF280814B028081088142E202B
:0E01640088106D1CB7283820B82831200800FC
:10017200831203132230FC00F801F901FA01FB019A
:10018200FC030319EF280310FB0CFA0CF90CF80C12
:10019200F30CF20CF10CF00C031CC128FC03031944
:1001A200E1287408F80775080318750FF90776082F
:1001B2000318760FFA0777080318770FFB07C5288D
:1001C2007408F80775080318750FF90776080318FD
:0E01D200760FFA0777080318770FFB0708006F
:1001E00083120313FB01FA01F901F801A001730D59
:1001F000F80D7408F8027508031C750FF9027608EB
:10020000031C760FFA027708031C770FFB0200012C
:10021000031C0130A002F30D0730FC00730DF80D34
:10022000F90DFA0DFB0DA00D7408731C2929F802B5
:100230007508031C750FF9027608031C760FFA0285
:100240007708031C770FFB020001031C0130A0029A
:100250003A29F80775080318750FF9077608031887
:10026000760FFA0777080318770FFB0700010318CA
:100270000130A007F30DFC0B0E29720DF80DF90DDE
:10028000FA0DFB0DA00D7408731C5829F8027508AF
:10029000031C750FF9027608031C760FFA02770823
:1002A000031C770FFB020001031C0130A002692927
:1002B000F80775080318750FF90776080318760F05
:1002C000FA0777080318770FFB07000103180130BE
:1002D000A007F20D0730FC00720DF80DF90DFA0DB4
:1002E000FB0DA00D7408721C8729F8027508031C09
:1002F000750FF9027608031C760FFA027708031CC3
:10030000770FFB020001031C0130A0029829F807B7
:1003100075080318750FF90776080318760FFA07A2
:1003200077080318770FFB07000103180130A007B7
:10033000F20DFC0B6C29710DF80DF90DFA0DFB0D8A
:10034000A00D7408721CB629F8027508031C750FFD
:10035000F9027608031C760FFA027708031C770F60
:10036000FB020001031C0130A002C729F807750831
:100370000318750FF90776080318760FFA07770840
:100380000318770FFB07000103180130A007F10DD8
:100390000730FC00710DF80DF90DFA0DFB0DA00DE5
:1003A0007408711CE529F8027508031C750FF90221
:1003B0007608031C760FFA027708031C770FFB02FE
:1003C0000001031C0130A002F629F8077508031884
:1003D000750FF90776080318760FFA0777080318E0
:1003E000770FFB07000103180130A007F10DFC0B8C
:1003F000CA29700DF80DF90DFA0DFB0DA00D74084A
:10040000711C142AF8027508031C750FF90276088E
:10041000031C760FFA027708031C770FFB0200011A
:10042000031C0130A002252AF80775080318750F70
:10043000F90776080318760FFA0777080318770F7D
:10044000FB07000103180130A007F00D0730FC0086
:10045000700DF80DF90DFA0DFB0DA00D7408701C50
:10046000432AF8027508031C750FF9027608031C6D
:10047000760FFA027708031C770FFB020001031CBA
:100480000130A002542AF80775080318750FF90700
:1004900076080318760FFA0777080318770FFB071B
:1004A000000103180130A007F00DFC0B282A70187A
:1004B000672A7408F80775080318750FF907760896
:1004C0000318760FFA0777080318770FFB07080061
:1004D000831203136D1083164F08D40062206D142D
:0204E000080012
:1004E200403083120313F0001F30F100F201F301D8
:0204F200080000
:1004F40083160313D201053052020318882A5208C6
:100504005107840020308000D20A7D2A5208510706
:1005140084008001D20352085107D3000A30F4004A
:10052400F5014F08F0005008F10045207808F0006C
:100534007908F1003030F0078316530884007008FE
:1005440080000A30F400F5014F08F0005008F10073
:10055400452070088316CF007108D0000030710662
:10056400031DB62A00307006031DB92ABB2AD20324
:040574008D2A0800C4
:0E057800831203136C088A006B0882000800CF
:1005860083160313CF03CF034F08003C0318D02A6A
:10059600CF03000000000000C72A00000000000092
:0605A60000000000080047
:1005AC000E3083120313FD00FD0BDA2A0000080045
:1005BC007122E830F4000330F500F601F701B920A0
:1005CC0070088316CB007108CC007208CD0073083C
:1005DC00CE004308F4004408F500F601F701F020C2
:1005EC0070088316CB007108CC007208CD0073081C
:1005FC00CE007008F5007108F6007208F700730859
:10060C00F800F80CF70CF60CF50CF813F80CF70CCA
:10061C00F60CF50CF8137508F0007608F100770865
:10062C00F2007808F300F30CF20CF10CF00CF3135D
:10063C007008C7007108C800712283164508F400C1
:10064C004608F500F601F701B92083164708F900B2
:10065C004808FA00FB01FC010330F8007908F400AB
:10066C007A08F5007B08F6007C08F7007808031977
:10067C00462BF40DF50DF60DF70D7410FF3E3D2BCA
:10068C00F02070088316CB007108CC007208CD00E6
:10069C007308CE000A30F4000030F5004708F00073
:1006AC004808F100452070088316C7007108C8007F
:1006BC0000307102031D642B033070020318672B8A
:1006CC00B92B300884004E08003C031D772B4D08D5
:1006DC00003C031D772B4C08003C031D772B4B086B
:1006EC00003C0318B62B83126F088004831648084D
:1006FC000319902BC901CA0100304A02031D882B33
:10070C00480849020318902BCF01C322C90A0319C8
:10071C00CA0A822B4708CF00C32283126E088005B9
:10072C00831648080319AA2BC901CA0100304A02D2
:10073C00031DA22B480849020318AA2BCF01C32280
:10074C00C90A0319CA0A9C2B4708CF00C3220130DF
:10075C00CB02031CCC02031CCD02031CCE02692B62
:08076C0083126E0880050800ED
:10077400831603178C1CC02B0000BA2B03134308E9
:10078400831203178D00831603134408831203177F
:100794008C0083168C130C150B08F0008B1355304A
:1007A4008D00AA308D008C14F01BDA2B8B13DB2BFD
:0607B4008B170C11080078
:1007BA00831203139F01C0309F0483161F179F17CC
:1007CA004308F000F00D7010F00D7010F00D70106D
:1007DA00700883129F041F14D6221F151F1DF72BA2
:1007EA000000F32B1F101E08F100F00183161E08EB
:0807FA00F0040030F1040800D6
:10080200132C803083160313C300262CC030C30080
:10081200262C9430C300262CD430C300262C8030E2
:10082200C300262C831603134308013A0319022C32
:100832004308023A0319072C4308033A03190A2C06
:100842004308043A03190D2C102C4403F00043080A
:10085200F0077008C3007008D40062206D10831680
:10086200C60146084507840000080319412C4608C2
:10087200450784000008CF0068228316C60A322C7E
:0608820083126D14080052
:1008880083120313FB01FA01F9018030F800F10C1F
:10089800F00C031C582C7408F90775080318750F19
:1008A800FA070318FB0A0310F01F602C7408FA07F4
:1008B80075080318750FFB07FB0CFA0CF90CF80CFC
:1008C800031C4B2C7B08F3007A08F2007908F1002E
:0608D8007808F0000800A2
:1008DE0083160313C801C9014308CA004408CB009C
:1008EE0080304406F00080307002031D802C0030F2
:1008FE00430203188E2C0130C8000030C900430893
:10090E00003CCA004408031C013ECB01CB024A083E
:10091E00CF004B08D0004508D1007A220630C60021
:10092E000030C7004708003C031D9F2C4608003CC2
:10093E000318BA2C46084507F20001304602F000B3
:10094E000030031C013E4702F10070084507840089
:10095E000008F00072088400700880000130C602A2
:10096E00031CC703992C45088400203080004808DA
:10097E0049040319D82CC601C7014608450784004F
:10098E000008203A031DCF2CC60A0319C70AC42C2F
:10099E000130C602031CC7034608450784002D30EC
:0409AE0080000800BD
:1009B200831603134308831203178D0083168C13C7
:0A09C2000C1483120C08F00008006A
:1009CC00BC228A110A128000840AEB0A0319EC0A71
:0809DC00F003031DE62C0800E6
:1009E400831603134308B0004408F1000130F000FB
:1009F40071080319012DF00D7010FF3EFB2C7008D7
:100A04008312EF00F0097008EE008030831643076C
:0E0A14008400700880058413700880050800B7
:100A220083160313881008100812881208138813FB
:100A320083128810081088130813881208123820AD
:100A4200382038208816081688142E20881038205E
:100A520088142E208810382088142E2088103820E0
:100A6200081288142E208810382088142E2088100E
:100A72008812881788142E208810382088130816A8
:100A820088142E208810081288142E2088103820EE
:100A920088142E208810081688142E2088103820DA
:100AA200081288142E20881088170817881608162E
:0C0AB20088142E20881038206D140800D5
:100ABE00FF3083160313AD00FF30AE00FF30AF00E2
:100ACE00FF3083129F01C0309F0483161F179F179C
:060ADE0083121F14080042
:100AE40022278316031305145F25831686118612A5
:100AF4008610061106140616871187178B178B1597
:100B04000B1607308100831281013D30C60000308E
:100B1400C700112586120611861086110730831628
:100B2400C3000330C400F2243330C300D924700856
:100B34000313C400C5018316C301DD230A30F40086
:100B44000030F50045200130F002031CF1030A30A7
:100B5400F4000030F50044247008E9007108EA004C
:100B640000303006031DB82D01302F06031DD62D8D
:100B740000302E06031DC02D00302D06031DD62D7A
:100B84008612061501308316D400622002308316C3
:100B9400C3000230C4002130C50001248615013091
:100BA400AD000030AE00982E00304306031DDC2D4E
:100BB40001304206031D052E0130C602031CC70383
:100BC40000304706031DE82D00304606031D042EA1
:100BD400861406118612861502308316C30002306D
:100BE400C4003330C5000124B101B2010130D70083
:100BF4000030D8003D30C6000030C7008101C2017A
:100C0400C3018B12982E00305606031D0B2E0130A3
:100C14005506031D262E01308316D40062200130B0
:100C24008316C3000130C4004830C5000124861671
:100C3400861006118611C401C501B101B201D501A6
:100C4400D601AF01B001982E80306A06F0008030E2
:100C54007002031D2F2E64306902031C3E2E803067
:100C6400033AF00080306A067002031D3B2E6908C7
:100C7400E83C031C3E2E5F2E00305806031D442E14
:100C840000305706031D5F2ED0308316C300073093
:100C9400C400E830C5000330C600DE22831203130B
:100CA400C40A0319C50A8B1633308316C300831292
:100CB40044088316C400BA23982E80308312031389
:100CC4006A06F00080307002031D6A2E64306902E7
:100CD400031C982E8030033AF00080306A067002BC
:100CE400031D762E6908E83C031C982E003032065A
:100CF400031D7E2E00303106031D982E013083160D
:100D0400D400622002308316C3000230C400A03035
:100D1400C5000124861086160611D701D8010130BA
:100D2400B1000030B2008611AD01AE01831203138D
:100D3400861FC62E01308316D40062204408831611
:100D4400C300831245088316C400B330C5006F2462
:100D54000130C3000130C4005930C5000124023001
:100D64008316C3000130C400B330C500012415301C
:100D7400FB004B30FC00BE30FD00FD0BBF2EFC0B16
:0C0D8400BF2EFB0BBF2E00009D2DC72EC4
:100E440021308400483083120313F000CD30EB00CE
:100E54000630EC00E624A03084000D300313F000CB
:0C0E64001530EB000730EC00E62408001D
:100D9A004D3461346E34753461346C3420345034DB
:080DAA0075346D34703400341F
:040DB20000340034D5
:040DB60000340034D1
:040DBA0000340034CD
:100DBE0043347234693474346934633461346C345A
:0E0DCE0020344C346534763465346C34003493
:040DDC0000340034AB
:040DE00000340034A7
:040DE40000340034A3
:100DE800523445345334453454342034533459340C
:0A0DF8005334543445344D340034B4
:040E02000034003484
:040E06000034003480
:100E0A0043347234693474346934633461346C340D
:100E1A00203443346F3475346E3474343A340034C5
:100E2A004E346F3472346D3461346C3420346C3423
:0A0E3A006534763465346C340034FE
:02400E007A3BFB
:00000001FF
